S014000046696E616C50726F6A6563742E737265634F
S11300000C948F000C9427040C94AC000C94AC005A
S11300100C94AC000C94AC000C94AC000C94AC00AC
S11300200C94AC000C94AC000C94AC000C94AC009C
S11300300C94AC000C94AC000C94AC000C94AC008C
S11300400C94AC000C94AC000C94AC000C94AC007C
S11300500C94AC000C94AC000C94AC000C94AC006C
S11300600C94AC000C94AC000E041404140414049A
S113007014041404140414041404140414041404BC
S113008014041404140414041404140414041404AC
S1130090140414041404140414041404140414049C
S11300A01404E403550378031404F6031404140439
S11300B0140414041404140414041404140414047C
S11300C01404140403041404A50314041404C3033F
S11300D0140414041404140414041404140414045C
S11300E01404D20355035F031404F6031404140424
S11300F0140414041404140414041404140414043C
S11301001404140403041404960314041404B4031C
S1130110AD05E4051F07B3072B08A2086B071124DC
S11301201FBECFEFD8E0DEBFCDBF15E0A0E0B1E049
S1130130E0EEF8E102C005900D92A236B107D9F7BE
S113014025E0A2E6B5E001C01D92A837B207E1F7A9
S11301500E9491050C946E0C0C940000E9EBF0E005
S113016080818C7F808388E48093B8000895809395
S11301706205ECEBF0E08081846A80838091BC00AE
S11301808823E4F78091B900887F883011F08031AA
S113019011F48FEF08958EEF089590E0880F991F62
S11301A090916205892B8093BB0084E88093BC0006
S11301B08091BC008823E4F780916205811107C017
S11301C08091B900887F883159F48FEF0895813088
S11301D049F48091B900887F803431F48FEF089519
S11301E08EEF089580E008958EEF08958093BB000C
S11301F0ECEBF0E08081806880838091BC008823F0
S1130200E4F78091B900887F883211F48FEF089564
S11302108EEF0895ECEBF0E080818069808380911B
S1130220BC0084FDFCCF0895CF93C82F80E00E94CA
S1130230B7008C2F0E94CD00CF9108950E940A012F
S113024008950E94F6000895CF93C82F8CE30E946E
S1130250140180E00E9421018C2F0E9421010E9440
S11302601E01CF910895CF93DF9381E20E94240170
S113027080E00E9424018FE70E94240182E20E9410
S1130280240180E00E94240187E00E9424018CE381
S11302900E94140180E40E942101C0E0D0E004C067
S11302A080E00E9421012196C11584E0D807C4F39F
S11302B081E20E94240180E00E9424018FE70E94D1
S11302C0240182E20E94240180E00E94240187E04C
S11302D00E9424018CE30E94140180E40E94210105
S11302E0DF91CF9108950E94AE008EEA0E9424010E
S11302F085ED0E94240180E80E94240188EA0E947E
S113030024018FE30E94240183ED0E94240180E0F4
S11303100E94240180E40E9424018DE80E942401AB
S113032084E10E94240180E20E94240180E00E9472
S1130330240181EA0E94240188EC0E9424018AEDB0
S11303400E94240182E10E94240181E80E94240188
S11303508FEC0E94240189ED0E94240181EF0E9408
S113036024018BED0E94240180E40E94240184EA8C
S11303700E94240186EA0E9424018FEA0E9424013B
S11303800E9433010895CF93DF93883000F56623EC
S1130390F4F0D62FC82F80936C0560936D0581E22D
S11303A00E9424018D2F0E9424018FE70E942401C2
S11303B082E20E9424018C2F0E94240187E00E9483
S11303C024018CE30E94140180E40E942101DF9146
S11303D0CF91089580916C058F5F877080936C0531
S11303E060E00E94C3010895CF93DF93D82F8091DA
S11303F06D0590E005968038910514F4DA3011F417
S11304000E94EA01DA3011F1D052C0E02D2F30E021
S1130410F901EE0FFF1FEE0FFF1FE20FF31FE95F5D
S1130420FE4FEC0FF11D80810E94210190916D051A
S11304309F5F90936D05CF5FC53041F780E00E94C8
S1130440210180916D058F5F80936D05DF91CF91C0
S11304500895CF93DF93EC0103C021960E94F40129
S113046088818111FACFDF91CF9108954F925F92E5
S11304706F927F92AF92BF92CF92DF92EF92FF92F0
S11304800F931F93CF93DF93CDB7DEB72A970FB6A1
S1130490F894DEBF0FBECDBFA82E6A017B01022FE8
S11304A082E0A81220C01CC0802F90E0019741E098
S11304B050E002C0440F551F8A95E2F7052E000C48
S11304C0660B770B4C215D216E217F2181E0452B4A
S11304D0462B472B09F480E0805D0E94F401015013
S11304E00111E2CF52C0452B462B472B39F010E0C7
S11304F035C080E30E94F4011F5F01C010E01017B3
S113050008F043C01A30A8F340C0C114D104E10478
S1130510F104D1F0BC2C4A2C512C612C712CC70154
S1130520B601A30192010E94950BC22ED32EE42E94
S1130530F52EE1E0F0E0EC0FFD1FE10FF11DA29EAE
S1130540B0181124B08209C00B30E8F4E1E0F0E007
S1130550EC0FFD1FE10FF11D10821F5F1017A8F2B1
S113056012C0E12FF0E0319781E090E08C0F9D1FE5
S1130570E80FF91F80818A3010F0895C01C0805D2A
S11305800E94F40111501111ECCF2A960FB6F89481
S1130590DEBF0FBECDBFDF91CF911F910F91FF90B2
S11305A0EF90DF90CF90BF90AF907F906F905F906F
S11305B04F9008958F929F92AF92BF92CF92DF9205
S11305C0EF92FF926B017C010E94570A4B015C0180
S11305D02FEFAB01BC018AE00E9436028EE20E943A
S11305E0F401C501B4010E94860A9B01AC01C70154
S11305F0B6010E94EA0920E034E244E759E40E948B
S1130600140B0E94570AAB01BC012FEF8AE00E9431
S11306103602FF90EF90DF90CF90BF90AF909F9005
S11306208F9008954F925F926F927F92AF92BF9294
S1130630EF92FF921F93CF93DF93CDB7DEB7FE0106
S11306403E96E190F1903F01F2C0853209F0EAC094
S1130650C7010196D7011196EC9120ED2E0F2A3097
S113066090F07C011FEF15C0812F880F982F990FF0
S1130670990F890F8E0F10ED180FBFEFEB1AFB0ABD
S1130680D701EC9102C07C0110E080ED8E0F8A301E
S113069058F38E2F90E0FC01B597E435F10508F08E
S11306A0C3C0EC5CFF4F0C94B70B5301B2E0AB0E2C
S11306B0B11CF30180810E94F4013501B5C05301DE
S11306C0F2E0AF0EB11CD3016D907C90772034F42E
S11306D07194619471088DE20E94F401A301770C76
S11306E0660B770B212F8AE00E94360235019CC0ED
S11306F05301B4E0AB0EB11CF30140805180628021
S1130700738077205CF47094609450944094411CFE
S1130710511C611C711C8DE20E94F401212FB30154
S1130720A2018AE00E94360235017EC05301F2E044
S1130730AF0EB11CD3014D915C9160E070E0212FAC
S11307408AE00E94360235016FC05301B4E0AB0E5B
S1130750B11CF3014081518162817381212F8AE0B0
S11307600E943602350160C05301F2E0AF0EB11CA5
S1130770D3014D915C9160E070E0212F80E10E94F3
S11307803602350151C05301B4E0AB0EB11CF30184
S11307904081518162817381212F80E10E94360260
S11307A0350142C05301F2E0AF0EB11CD3014D91AB
S11307B05C911F3F09F410E160E070E0212F82E0BA
S11307C00E943602350130C05301B4E0AB0EB11CB7
S11307D0F30140815181628173811F3F09F410E16B
S11307E0212F82E00E94360235011EC05301F4E03D
S11307F0AF0EB11CD3016D917D918D919C910E949E
S1130800DA02350111C05301B2E0AB0EB11CF301A1
S1130810808191810E942902350106C085E20E94EF
S1130820F40102C00E94F401FFEFEF1AFF0AD7019E
S11308308C9181110ACFDF91CF911F91FF90EF909E
S1130840BF90AF907F906F905F904F9008951F92EC
S11308500F920FB60F9211242F938F939F938FE3D0
S11308609CE90197F1F700C0000029B181E0922FC3
S1130870947022FD80E091110BC020916B05211131
S113088007C020916805243019F021E020936A05FF
S1130890992339F090916B05992319F091E0909385
S11308A0690580936B0580916B05882341F08091E5
S11308B06805823021F485B1816085B903C085B1B2
S11308C08E7F85B99F918F912F910F900FBE0F90BE
S11308D01F90189581EA8093800081E080938100C5
S11308E0109289001092880010928B0010928A0056
S11308F091E89093B0008093B1001092B30084B15A
S11309008E6084B9089590E0909389008093880064
S113091070E070938B0060938A004093B300089555
S1130920AC0120E030E017C08FE99FE00197F1F7B8
S113093000C0000090916B05992341F080916805F7
S1130940823021F485B1816085B903C095B19E7F61
S113095095B92F5F3F4F2417350730F30895CF9390
S1130960DF93C0E0D0E014C04C2F409560E08C2FA2
S11309700E94830485E090E00E94900480916A05BF
S1130980882329F080916805882309F453C02196AF
S1130990CF3FD10549F340F3C0E0D0E013C040E0BD
S11309A06C2F8C2F80950E94830485E090E00E9438
S11309B0900480916A05882321F08091680588233A
S11309C0C9F12196CF3FD10551F348F3C0E0D0E0FF
S11309D013C04C2F6C2F609580E00E94830485E047
S11309E090E00E94900480916A05882321F0809110
S11309F068058823F9F02196CF3FD10551F348F3D8
S1130A00C0E0D0E013C04C2F409560E08C2F0E94D2
S1130A10830485E090E00E94900480916A05882315
S1130A2021F080916805882329F02196CF3FD105D4
S1130A3051F348F3DF91CF91089540E060E08FEFE8
S1130A400E948304089540E06FEF80E00E948304D5
S1130A5008954FEF60E080E00E948304089540E031
S1130A6065EA8FEF0E948304089540E06FEF8FEFF3
S1130A700E94830408958AB18B7F8AB98BB1846004
S1130A808BB9E9E6F0E080818160808380818D7F8D
S1130A9080838DB381608DBB8CB381608CBB0895E2
S1130AA00E942C0C60ED77E00E94810B88519C4FD2
S1130AB0089510926305109265051092640580E014
S1130AC009C0E82FF0E0EE0FFF1FE259FA4F118240
S1130AD010828F5F8530A8F30895809306018130DA
S1130AE059F018F0823079F015C088E893E19093BA
S1130AF0050180930401089584EC99E09093050125
S1130B0080930401089588EE93E090930501809307
S1130B100401089584EC99E0909305018093040105
S1130B2008950E946A040E9473010E94330184B1F3
S1130B30816084B90E943B058AE290E00E94310CF6
S1130B4078940E945905E0916805F0E0E730F105DA
S1130B50D0F7E857FF4F0C94B70B0E94330160E0C5
S1130B6080E00E94C30182EE92E09F938F930E94E3
S1130B70120361E081E00E94C3018BEE92E09F9337
S1130B808F930E94120362E082E00E94C30181E01D
S1130B9093E09F938F930E94120310926A050F9023
S1130BA00F900F900F900F900F9002C00E94AF040F
S1130BB080916A058823D1F381E0809368051092BF
S1130BC06A0510926905BFCF2FEF81EE94E02150A2
S1130BD080409040E1F700C000000E94330160E0D3
S1130BE080E00E94C30184E193E09F938F930E946D
S1130BF0120362E082E00E94C30187E293E09F93C4
S1130C008F930E94120361E081E00E94C30186E396
S1130C1093E09F938F930E9412030E9435050F90D7
S1130C200F900F900F900F900F9000E010E0E12CC8
S1130C30F12C8DC090916905992399F18F2D90E045
S1130C40019663E070E00E94810BEC01F82E61E0F4
S1130C5081E00E94C301CE0199278130910571F092
S1130C6082309105A1F0892BD1F48FE393E09F9317
S1130C708F930E9412030F900F9011C08AE493E0A7
S1130C809F938F930E9412030F900F9008C085E5E5
S1130C9093E09F938F930E9412030F900F901092F2
S1130CA0690590916B059923E1F1E8012A96CD320B
S1130CB021E0D20788F19E01369527953695279530
S1130CC0ABE7B4E10E94BD0B9695879544E6489F37
S1130CD09001499F300D1124C217D307E9F463E052
S1130CE083E00E94C301980122523140A1EFB0EF8A
S1130CF00E94BD0B929582958F7089279F708927DA
S1130D009F938F9380E693E09F938F930E941203A7
S1130D100F900F900F900F90C03D87E0D80780F49C
S1130D2011C063E083E00E94C30185E793E09F93D1
S1130D308F930E9412030F900F90C0E0D0E002C086
S1130D40EE24E3948AE090E00E9490048E01EE2069
S1130D5009F470CF8F2D0E946D059FE727E986E087
S1130D60915020408040E1F700C000000E94330110
S1130D7060E080E00E94C301809106018130C9F0E7
S1130D8018F0823059F13EC08AE893E09F938F9324
S1130D900E94120361E081E00E94C30182EA93E0B1
S1130DA09F938F930E9412030F900F900F900F90B8
S1130DB029C084E993E09F938F930E94120361E01A
S1130DC081E00E94C30180EA93E09F938F930E9485
S1130DD012030F900F900F900F9014C083EB93E0C9
S1130DE09F938F930E94120361E081E00E94C301EC
S1130DF08DEB93E09F938F930E9412030F900F90BB
S1130E000F900F9063E083E00E94C3018EEC93E0A7
S1130E109F938F930E94120380ED97E00E949004A9
S1130E200E94590581E08093630582E08093680500
S1130E3010926A05109269050F900F9084CE0E945B
S1130E40330160E080E00E94C3011F9285E08F932C
S1130E50809163051F928F9389ED93E09F938F9305
S1130E600E94120361E081E00E94C30188EE93E0D6
S1130E709F938F930E9412030E941D050E945005A8
S1130E808C018DB79EB708960FB6F8949EBF0FBE1F
S1130E908DBFC0E0D0E00DC081E090E00E949004DE
S1130EA080916A05882321F086E08093680504C058
S1130EB02196C017D10780F380916805823009F02C
S1130EC042CE83E080936805109267051092660510
S1130ED010926A0538CE0E94330160E080E00E94DF
S1130EE0C3018EEF93E09F938F930E94120361E0FE
S1130EF081E00E94C30188E094E09F938F930E9455
S1130F00120363E083E00E94C3018BE194E09F93AA
S1130F108F930E94120364E084E00E94C30188E27C
S1130F2094E09F938F930E9412030E941D051092D8
S1130F306A058DB79EB708960FB6F8949EBF0FBE8C
S1130F408DBF04C084E690E00E94900480916A05FD
S1130F508823C1F310926A05109269050E9459050D
S1130F6010926805F0CD0E9423050E94330160E0D1
S1130F7080E00E94C30185E394E09F938F930E94D5
S1130F8012030F900F900DC081E090E00E94900436
S1130F90809166059091670501969093670580930B
S1130FA0660580916A0581110BC020916605309118
S1130FB0670580910401909105012817390720F3F2
S1130FC080916A058823E1F0E0916305F0E03197B0
S1130FD08091660590916705EE0FFF1FE259FA4F65
S1130FE0918380832091640530916505820F931F5E
S1130FF0909365058093640584E08093680528C018
S11310000E94330160E080E00E94C3018AE494E01E
S11310109F938F930E94120361E081E00E94C301B9
S113102084E594E09F938F930E9412030E941D0510
S113103080ED97E00E94900410926A051092690571
S11310400E945905109268050F900F900F900F9011
S113105010926A0578CD0E9429050E94330160E050
S113106080E00E94C301809167058F93809166059B
S11310708F93809163051F928F938EE594E09F93E5
S11310808F930E94120361E081E00E94C30180916A
S11310906605909167050F900F900F900F900F9039
S11310A00F90883C910548F48EE694E09F938F93CB
S11310B00E9412030F900F902EC0803921E09207F6
S11310C048F488E794E09F938F930E9412030F9053
S11310D00F9021C0883522E0920748F480E894E01C
S11310E09F938F930E9412030F900F9014C080322D
S11310F0934048F487E894E09F938F930E941203EF
S11311000F900F9008C08CE894E09F938F930E94F7
S113111012030F900F9088EB9BE00E9490041092B2
S11311206A051092690580916305853020F085E099
S11311308093680508CD8F5F8093630582E0809378
S1131140680501CD0E9433010E942F05209164059A
S113115030916505ADECBCEC0E94BD0BEC01D6955D
S1131160C795D695C79560E080E00E94C301809141
S11311700601813069F018F0823099F01AC088E9CC
S113118094E09F938F930E9412030F900F9011C0CD
S11311908BEA94E09F938F930E9412030F900F9019
S11311A008C080EC94E09F938F930E9412030F90E9
S11311B00F9061E081E00E94C301DF93CF9383ED40
S11311C094E09F938F930E94120362E082E00E9456
S11311D0C3010F900F900F900F9080910601813002
S11311E069F018F0823099F01AC087EE94E09F936A
S11311F08F930E9412030F900F9011C08AEF94E016
S11312009F938F930E9412030F900F9008C08FE05A
S113121095E09F938F930E9412030F900F9063E0C9
S113122083E00E94C30182E295E09F938F930E9422
S1131230120364E084E00E94C30186E295E09F9378
S11312408F930E94120365E085E00E94C3018AE245
S113125095E09F938F930E94120366E086E00E94BC
S1131260C3018EE295E09F938F930E941203109224
S11312706A058DB79EB708960FB6F8949EBF0FBE49
S11312808DBF04C084E690E00E94900480916A05BA
S11312908823C1F310926A0567E087E00E94C301C6
S11312A010E0C0E0D0E07AC04A9964C02A969E015A
S11312B03695279536952795ABE3BDE60E94BD0B81
S11312C096958795929582958F7089279F70892727
S11312D04CE251E0849F9001859F300D949F300D26
S11312E01124CE01821B930B8A30910508F03FC074
S11312F011113DC09E0136952795369527950E947C
S1131300BD0B96958795929582958F7089279F70CE
S11313108927082F67E087E00E94C30183E495E0F2
S11313209F938F930E9412030F900F9014C0101775
S113133048F425E435E03F932F930E9412030F9065
S11313400F9008C028E833E03F932F930E941203C4
S11313500F900F901F5F1A3050F382E595E09F9332
S11313608F930E9412030F900F9011E013C00A97FD
S113137080F410C067E087E00E94C30187E495E031
S11313809F938F930E9412030F900F90C0E0D0E0C0
S113139001C010E08AE090E00E949004C83B9BE00A
S11313A0D90708F481CF67E087E00E94C30184E590
S11313B095E09F938F930E94120388EE93E00E941E
S11313C0900410926A0510926905109268050F90B6
S11313D00F90B9CB5058BB27AA270E94020A0C943D
S11313E0DA0A0E94CC0A38F00E94D30A20F039F4B9
S11313F09F3F19F426F40C94C90A0EF4E095E7FB18
S11314000C94C30AE92F0E94EB0A58F3BA17620737
S113141073078407950720F079F4A6F50C940D0B57
S11314200EF4E0950B2EBA2FA02D0B01B9019001FB
S11314300C01CA01A0011124FF27591B99F0593F3F
S113144050F4503E68F11A16F040A22F232F342F87
S11314504427585FF3CF469537952795A795F040D5
S11314605395C9F77EF41F16BA0B620B730B840BEA
S1131470BAF09150A1F0FF0FBB1F661F771F881FA2
S1131480C2F70EC0BA0F621F731F841F48F48795FA
S113149077956795B795F7959E3F08F0B0CF9395EC
S11314A0880F08F09927EE0F9795879508950E9465
S11314B0F30A88F09F5798F0B92F9927B751B0F0E5
S11314C0E1F0660F771F881F991F1AF0BA95C9F7C4
S11314D014C0B13091F00E940D0BB1E008950C944A
S11314E00D0B672F782F8827B85F39F0B93FCCF3FD
S11314F0869577956795B395D9F73EF49095809541
S1131500709561957F4F8F4F9F4F0895E89409C060
S113151097FB3EF490958095709561957F4F8F4F22
S11315209F4F9923A9F0F92F96E9BB279395F69538
S1131530879577956795B795F111F8CFFAF4BB0FB6
S113154011F460FF1BC06F5F7F4F8F4F9F4F16C01A
S1131550882311F096E911C0772321F09EE8872FA4
S1131560762F05C0662371F096E8862F70E060E060
S11315702AF09A95660F771F881FDAF7880F9695D9
S1131580879597F9089597F99F6780E870E060E080
S113159008959FEF80EC089500240A941616170608
S11315A018060906089500240A9412161306140650
S11315B005060895092E0394000C11F4882352F0B3
S11315C0BB0F40F4BF2B11F460FF04C06F5F7F4F6B
S11315D08F4F9F4F089557FD9058440F551F59F052
S11315E05F3F71F04795880F97FB991F61F09F3F0C
S11315F079F087950895121613061406551FF2CF35
S11316004695F1DF08C0161617061806991FF1CF84
S113161086957105610508940895E894BB276627AB
S11316207727CB0197F908950E94270B0C94DA0AC7
S11316300E94CC0A38F00E94D30A20F0952311F0BE
S11316400C94C30A0C94C90A11240C940E0B0E9426
S1131650EB0A70F3959FC1F3950F50E0551F629FFD
S1131660F001729FBB27F00DB11D639FAA27F00DF7
S1131670B11DAA1F649F6627B00DA11D661F829F1E
S11316802227B00DA11D621F739FB00DA11D621F03
S1131690839FA00D611D221F749F3327A00D611D20
S11316A0231F849F600D211D822F762F6A2F112402
S11316B09F5750409AF0F1F088234AF0EE0FFF1F35
S11316C0BB1F661F771F881F91505040A9F79E3F8C
S11316D0510580F00C94C30A0C940E0B5F3FE4F3A5
S11316E0983ED4F3869577956795B795F795E795E2
S11316F09F5FC1F7FE2B880F911D9695879597F9EB
S1131700089597FB072E16F4009407D077FD09D0AF
S11317100E94CC0B07FC05D03EF4909581959F4F19
S11317200895709561957F4F0895A1E21A2EAA1B22
S1131730BB1BFD010DC0AA1FBB1FEE1FFF1FA2177D
S1131740B307E407F50720F0A21BB30BE40BF50B7A
S1131750661F771F881F991F1A9469F76095709503
S1131760809590959B01AC01BD01CF010895EE0FCA
S1131770FF1F0590F491E02D0994A29FB001B39F3F
S1131780C001A39F700D811D1124911DB29F700D86
S1131790811D1124911D0895AA1BBB1B51E107C093
S11317A0AA1FBB1FA617B70710F0A61BB70B881FED
S11317B0991F5A95A9F780959095BC01CD0108957C
S11317C08F929F92AF92BF92CF92DF92EF92FF924D
S11317D0CF93DF93EC01688179818A819B816115C4
S11317E071058105910521F464E279ED8BE597E0BB
S11317F02DE133EF41E050E00E943C0C49015A01D5
S11318009B01AC01A7EAB1E40E945B0C6B017C0173
S1131810ACEEB4EFA50194010E94690CDC01CB018C
S11318208C0D9D1DAE1DBF1DB7FF03C00197A109FF
S1131830B04888839983AA83BB839F77DF91CF9134
S1131840FF90EF90DF90CF90BF90AF909F908F90DC
S113185008950E94E00B089580E091E00E94E00B5F
S11318600895A0E0B0E08093000190930101A0935B
S11318700201B09303010895052E97FB1EF4009412
S11318800E94530C57FD07D00E94950B07FC03D010
S11318904EF40C94530C50954095309521953F4F40
S11318A04F4F5F4F089590958095709561957F4F48
S11318B08F4F9F4F08950E94BD0BA59F900DB49F1D
S11318C0900DA49F800D911D11240895B7FF0C94D1
S11318D05B0C0E945B0C821B930B0895F894FFCF62
S11318E001000000C40901000000000000002F00F6
S11318F0000007000700147F147F14242A7F2A1293
S11319002313086462364955225000050300000081
S11319101C2241000041221C0014083E081408083F
S11319203E08080000A0600008080808080060607D
S1131930000020100804023E5149453E00427F4009
S11319400042615149462141454B311814127F1020
S113195027454545393C4A49493001710905033653
S113196049494936064949291E00363600000056C1
S113197036000008142241001414141414004122E7
S113198014080201510906324959513E7C121112C0
S11319907C7F494949363E414141227F4141221CD5
S11319A07F494949417F090909013E4149497A7FF3
S11319B00808087F00417F41002040413F017F0823
S11319C01422417F404040407F020C027F7F040884
S11319D0107F3E4141413E7F090909063E415121A4
S11319E05E7F09192946464949493101017F0101B0
S11319F03F4040403F1F2040201F3F4038403F634E
S1131A001408146307087008076151494543007FAF
S1131A1041410055AA55AA550041417F00040201E5
S1131A200204404040404000030500002054545448
S1131A30787F484444383844444420384444487FF8
S1131A403854545418087E09010218A4A4A47C7FB5
S1131A500804047800447D40004080847D007F10A9
S1131A6028440000417F40007C041804787C08046A
S1131A7004783844444438FC2424241818242418B2
S1131A80FC7C080404084854545420043F44402077
S1131A903C4040207C1C2040201C3C4030403C44C6
S1131AA0281028441CA0A0A07C4464544C4400107A
S1131AB07C82000000FF000000827C100000060908
S1131AC0090657656C636F6D652100507265737309
S1131AD020427574746F6E20746F20537461727435
S1131AE000352D526F756E64204368616C6C656EB1
S1131AF06765210043686F6F736520446966666992
S1131B0063756C74793A00507265737320746F2036
S1131B106379636C65003E2045415359203C003E87
S1131B202045415359203C2020003E204D45444946
S1131B30554D203C003E2048415244203C2020008A
S1131B40486F6C6420746F20636F6E6669726D3ABF
S1131B50256425250020202020202020202020204E
S1131B602020202020202020200045415359204DB2
S1131B704F4445004D454449554D204D4F44450083
S1131B80322E352073656320746F20726573706F15
S1131B906E640048415244204D4F44450031207347
S1131BA0656320746F20726573706F6E640047659F
S1131BB0742072656164792100526F756E6420250A
S1131BC064206F66202564005761697420666F7213
S1131BD020475245454E206C696768742100594F6F
S1131BE055204C4F53452100507265737365642032
S1131BF0647572696E672052454400507265737350
S1131C0020627574746F6E00746F20747279206131
S1131C106761696E00475245454E212050726573D5
S1131C207320627574746F6E2100546F6F20736C2F
S1131C306F772100596F75206C6F73652100526FA7
S1131C40756E642025643A202564206D7300416D0F
S1131C50617A696E672120004772656174212000F2
S1131C60476F6F6421200045682120005965612079
S1131C707572206261642000436F6D706C657465D9
S1131C8064206F6E20454153592100436F6D706C81
S1131C9065746564206F6E204D454449554D21009F
S1131CA0436F6D706C65746564206F6E204841529B
S1131CB0442100417665726167652054696D653A17
S1131CC0202564206D7300546F702054696D657312
S1131CD0206F6E20454153593A00546F7020546967
S1131CE06D6573206F6E204D454449554D3A00543F
S1131CF06F702054696D6573206F6E2048415244A3
S1131D003A00312E2000322E2000332E2000484F7E
S1131D104C4420337320746F207265737461727441
S1131D203A20005B003D005B202020202020202062
S1131D3020205D0052657374617274696E672E2E83
S1051D402E006F
S9030000FC
